{
  "address": "0x9fE46736679d2D9a65F0992F2272dE9f3c7fa6e0",
  "abi": [
    {
      "inputs": [
        {
          "internalType": "address",
          "name": "coordinatorV2",
          "type": "address"
        },
        {
          "internalType": "uint256",
          "name": "entranceFee",
          "type": "uint256"
        },
        {
          "internalType": "bytes32",
          "name": "_gaslane",
          "type": "bytes32"
        },
        {
          "internalType": "uint64",
          "name": "subscriptionId",
          "type": "uint64"
        },
        {
          "internalType": "uint32",
          "name": "callbackGasLimit",
          "type": "uint32"
        },
        {
          "internalType": "uint256",
          "name": "_interval",
          "type": "uint256"
        }
      ],
      "stateMutability": "nonpayable",
      "type": "constructor"
    },
    {
      "inputs": [],
      "name": "Lottery__NotEnoughamount",
      "type": "error"
    },
    {
      "inputs": [
        {
          "internalType": "uint256",
          "name": "",
          "type": "uint256"
        },
        {
          "internalType": "uint256",
          "name": "",
          "type": "uint256"
        },
        {
          "internalType": "uint256",
          "name": "",
          "type": "uint256"
        }
      ],
      "name": "Lottery__UpKeepFailed",
      "type": "error"
    },
    {
      "inputs": [],
      "name": "Lottery__lotteryStateNotOpen",
      "type": "error"
    },
    {
      "inputs": [],
      "name": "Lottery__withdrawlFailure",
      "type": "error"
    },
    {
      "inputs": [
        {
          "internalType": "address",
          "name": "have",
          "type": "address"
        },
        {
          "internalType": "address",
          "name": "want",
          "type": "address"
        }
      ],
      "name": "OnlyCoordinatorCanFulfill",
      "type": "error"
    },
    {
      "anonymous": false,
      "inputs": [
        {
          "indexed": true,
          "internalType": "address",
          "name": "player",
          "type": "address"
        }
      ],
      "name": "raffleEnter",
      "type": "event"
    },
    {
      "anonymous": false,
      "inputs": [
        {
          "indexed": true,
          "internalType": "address",
          "name": "winner",
          "type": "address"
        }
      ],
      "name": "raffleWinner",
      "type": "event"
    },
    {
      "anonymous": false,
      "inputs": [
        {
          "indexed": true,
          "internalType": "uint256",
          "name": "requestId",
          "type": "uint256"
        }
      ],
      "name": "raffleWinnerRequestId",
      "type": "event"
    },
    {
      "inputs": [
        {
          "internalType": "bytes",
          "name": "",
          "type": "bytes"
        }
      ],
      "name": "checkUpkeep",
      "outputs": [
        {
          "internalType": "bool",
          "name": "upkeepNeeded",
          "type": "bool"
        },
        {
          "internalType": "bytes",
          "name": "",
          "type": "bytes"
        }
      ],
      "stateMutability": "view",
      "type": "function"
    },
    {
      "inputs": [],
      "name": "enterRaffle",
      "outputs": [],
      "stateMutability": "payable",
      "type": "function"
    },
    {
      "inputs": [],
      "name": "getEntranceFee",
      "outputs": [
        {
          "internalType": "uint256",
          "name": "",
          "type": "uint256"
        }
      ],
      "stateMutability": "view",
      "type": "function"
    },
    {
      "inputs": [
        {
          "internalType": "uint256",
          "name": "index",
          "type": "uint256"
        }
      ],
      "name": "getPlayers",
      "outputs": [
        {
          "internalType": "address",
          "name": "",
          "type": "address"
        }
      ],
      "stateMutability": "view",
      "type": "function"
    },
    {
      "inputs": [],
      "name": "getRecentWinnerAddress",
      "outputs": [
        {
          "internalType": "address",
          "name": "",
          "type": "address"
        }
      ],
      "stateMutability": "view",
      "type": "function"
    },
    {
      "inputs": [
        {
          "internalType": "bytes",
          "name": "performData",
          "type": "bytes"
        }
      ],
      "name": "performUpkeep",
      "outputs": [],
      "stateMutability": "nonpayable",
      "type": "function"
    },
    {
      "inputs": [
        {
          "internalType": "uint256",
          "name": "requestId",
          "type": "uint256"
        },
        {
          "internalType": "uint256[]",
          "name": "randomWords",
          "type": "uint256[]"
        }
      ],
      "name": "rawFulfillRandomWords",
      "outputs": [],
      "stateMutability": "nonpayable",
      "type": "function"
    }
  ],
  "transactionHash": "0x6e2c15d69a347b7f347c0dfbb2da76f0cec9c3bd3e69dbc46c25b586dd1b6843",
  "args": [
    "0x5FbDB2315678afecb367f032d93F642f64180aa3",
    "100000000000000000",
    "0xd89b2bf150e3b9e13446986e571fb9cab24b13cea0a43ea20a6049a85cc807cc",
    "1",
    "500000",
    "30"
  ],
  "numDeployments": 1,
  "solcInputHash": "6d4b4b1eb9cdad305066afeb807c47fd",
  "bytecode": "0x6101606040523480156200001257600080fd5b5060405162001536380380620015368339818101604052810190620000389190620002d5565b858073ffffffffffffffffffffffffffffffffffffffff1660808173ffffffffffffffffffffffffffffffffffffffff1681525050508460a0818152505085600160006101000a81548173ffffffffffffffffffffffffffffffffffffffff021916908373ffffffffffffffffffffffffffffffffffffffff1602179055508360c081815250508267ffffffffffffffff1660e08167ffffffffffffffff16815250508163ffffffff166101008163ffffffff16815250503373ffffffffffffffffffffffffffffffffffffffff166101208173ffffffffffffffffffffffffffffffffffffffff16815250506000600260146101000a81548160ff021916908360018111156200014e576200014d62000371565b5b021790555080610140818152505042600381905550505050505050620003a0565b600080fd5b600073ffffffffffffffffffffffffffffffffffffffff82169050919050565b6000620001a18262000174565b9050919050565b620001b38162000194565b8114620001bf57600080fd5b50565b600081519050620001d381620001a8565b92915050565b6000819050919050565b620001ee81620001d9565b8114620001fa57600080fd5b50565b6000815190506200020e81620001e3565b92915050565b6000819050919050565b620002298162000214565b81146200023557600080fd5b50565b60008151905062000249816200021e565b92915050565b600067ffffffffffffffff82169050919050565b6200026e816200024f565b81146200027a57600080fd5b50565b6000815190506200028e8162000263565b92915050565b600063ffffffff82169050919050565b620002af8162000294565b8114620002bb57600080fd5b50565b600081519050620002cf81620002a4565b92915050565b60008060008060008060c08789031215620002f557620002f46200016f565b5b60006200030589828a01620001c2565b96505060206200031889828a01620001fd565b95505060406200032b89828a0162000238565b94505060606200033e89828a016200027d565b93505060806200035189828a01620002be565b92505060a06200036489828a01620001fd565b9150509295509295509295565b7f4e487b7100000000000000000000000000000000000000000000000000000000600052602160045260246000fd5b60805160a05160c05160e051610100516101205161014051611130620004066000396000610682015260005050600061052501526000610502015260006104e10152600081816101a6015261028c0152600081816101cc015261022001526111306000f3fe6080604052600436106100705760003560e01c80634585e33b1161004e5780634585e33b146100d3578063460e2049146100fc5780636e04ff0d14610139578063c8bc9f221461017757610070565b806309bc33a7146100755780631fe543e3146100a05780632cfcc539146100c9575b600080fd5b34801561008157600080fd5b5061008a6101a2565b6040516100979190610a12565b60405180910390f35b3480156100ac57600080fd5b506100c760048036038101906100c29190610bc6565b6101ca565b005b6100d161028a565b005b3480156100df57600080fd5b506100fa60048036038101906100f59190610c7d565b6103f9565b005b34801561010857600080fd5b50610123600480360381019061011e9190610cca565b6105ed565b6040516101309190610d38565b60405180910390f35b34801561014557600080fd5b50610160600480360381019061015b9190610c7d565b610634565b60405161016e929190610df6565b60405180910390f35b34801561018357600080fd5b5061018c6106f7565b6040516101999190610d38565b60405180910390f35b60007f0000000000000000000000000000000000000000000000000000000000000000905090565b7f000000000000000000000000000000000000000000000000000000000000000073ffffffffffffffffffffffffffffffffffffffff163373ffffffffffffffffffffffffffffffffffffffff161461027c57337f00000000000000000000000000000000000000000000000000000000000000006040517f1cf993f4000000000000000000000000000000000000000000000000000000008152600401610273929190610e26565b60405180910390fd5b6102868282610721565b5050565b7f00000000000000000000000000000000000000000000000000000000000000003410156102e4576040517f5f29900700000000000000000000000000000000000000000000000000000000815260040160405180910390fd5b600060018111156102f8576102f7610e4f565b5b600260149054906101000a900460ff16600181111561031a57610319610e4f565b5b14610351576040517f095f40f200000000000000000000000000000000000000000000000000000000815260040160405180910390fd5b6000339080600181540180825580915050600190039060005260206000200160009091909190916101000a81548173ffffffffffffffffffffffffffffffffffffffff021916908373ffffffffffffffffffffffffffffffffffffffff1602179055503373ffffffffffffffffffffffffffffffffffffffff167f742d070bf0f3edace132a9da8ba725e8cf99c478869cee7f673ed6085e2f8e6460405160405180910390a2565b60006104058383610634565b509050806104745747600080549050600260149054906101000a900460ff16600181111561043657610435610e4f565b5b6040517fba56ba1e00000000000000000000000000000000000000000000000000000000815260040161046b93929190610e7e565b60405180910390fd5b6001600260146101000a81548160ff0219169083600181111561049a57610499610e4f565b5b02179055506000600160009054906101000a900473ffffffffffffffffffffffffffffffffffffffff1673ffffffffffffffffffffffffffffffffffffffff16635d3b1d307f00000000000000000000000000000000000000000000000000000000000000007f000000000000000000000000000000000000000000000000000000000000000060037f000000000000000000000000000000000000000000000000000000000000000060016040518663ffffffff1660e01b8152600401610566959493929190610f2d565b602060405180830381600087803b15801561058057600080fd5b505af1158015610594573d6000803e3d6000fd5b505050506040513d601f19601f820116820180604052508101906105b89190610f95565b9050807f39d6f6f11cc56344164c6b1819c569a963fdff0b3cf6fc86234f0e9208cb839960405160405180910390a250505050565b600080828154811061060257610601610fc2565b5b9060005260206000200160009054906101000a900473ffffffffffffffffffffffffffffffffffffffff169050919050565b60006060600080600181111561064d5761064c610e4f565b5b600260149054906101000a900460ff16600181111561066f5761066e610e4f565b5b14905060008060008054905011905060007f0000000000000000000000000000000000000000000000000000000000000000600354426106af9190611020565b119050600080471190508380156106c35750825b80156106cc5750815b80156106d55750805b9550856040518060200160405280600081525095509550505050509250929050565b6000600260009054906101000a900473ffffffffffffffffffffffffffffffffffffffff16905090565b600080805490508260008151811061073c5761073b610fc2565b5b602002602001015161074e9190611083565b9050600080828154811061076557610764610fc2565b5b9060005260206000200160009054906101000a900473ffffffffffffffffffffffffffffffffffffffff16905080600260006101000a81548173ffffffffffffffffffffffffffffffffffffffff021916908373ffffffffffffffffffffffffffffffffffffffff1602179055506000600260146101000a81548160ff021916908360018111156107f9576107f8610e4f565b5b0217905550600067ffffffffffffffff81111561081957610818610a83565b5b6040519080825280602002602001820160405280156108475781602001602082028036833780820191505090505b506000908051906020019061085d929190610952565b504260038190555060008173ffffffffffffffffffffffffffffffffffffffff164760405161088b906110e5565b60006040518083038185875af1925050503d80600081146108c8576040519150601f19603f3d011682016040523d82523d6000602084013e6108cd565b606091505b5050905080610908576040517fe42b12c400000000000000000000000000000000000000000000000000000000815260040160405180910390fd5b8173ffffffffffffffffffffffffffffffffffffffff167f73596e63671a3c1df50f36a159cec4466d1dadf890cd36df5ec84ebc6467d5a460405160405180910390a25050505050565b8280548282559060005260206000209081019282156109cb579160200282015b828111156109ca5782518260006101000a81548173ffffffffffffffffffffffffffffffffffffffff021916908373ffffffffffffffffffffffffffffffffffffffff16021790555091602001919060010190610972565b5b5090506109d891906109dc565b5090565b5b808211156109f55760008160009055506001016109dd565b5090565b6000819050919050565b610a0c816109f9565b82525050565b6000602082019050610a276000830184610a03565b92915050565b6000604051905090565b600080fd5b600080fd5b610a4a816109f9565b8114610a5557600080fd5b50565b600081359050610a6781610a41565b92915050565b600080fd5b6000601f19601f8301169050919050565b7f4e487b7100000000000000000000000000000000000000000000000000000000600052604160045260246000fd5b610abb82610a72565b810181811067ffffffffffffffff82111715610ada57610ad9610a83565b5b80604052505050565b6000610aed610a2d565b9050610af98282610ab2565b919050565b600067ffffffffffffffff821115610b1957610b18610a83565b5b602082029050602081019050919050565b600080fd5b6000610b42610b3d84610afe565b610ae3565b90508083825260208201905060208402830185811115610b6557610b64610b2a565b5b835b81811015610b8e5780610b7a8882610a58565b845260208401935050602081019050610b67565b5050509392505050565b600082601f830112610bad57610bac610a6d565b5b8135610bbd848260208601610b2f565b91505092915050565b60008060408385031215610bdd57610bdc610a37565b5b6000610beb85828601610a58565b925050602083013567ffffffffffffffff811115610c0c57610c0b610a3c565b5b610c1885828601610b98565b9150509250929050565b600080fd5b60008083601f840112610c3d57610c3c610a6d565b5b8235905067ffffffffffffffff811115610c5a57610c59610c22565b5b602083019150836001820283011115610c7657610c75610b2a565b5b9250929050565b60008060208385031215610c9457610c93610a37565b5b600083013567ffffffffffffffff811115610cb257610cb1610a3c565b5b610cbe85828601610c27565b92509250509250929050565b600060208284031215610ce057610cdf610a37565b5b6000610cee84828501610a58565b91505092915050565b600073ffffffffffffffffffffffffffffffffffffffff82169050919050565b6000610d2282610cf7565b9050919050565b610d3281610d17565b82525050565b6000602082019050610d4d6000830184610d29565b92915050565b60008115159050919050565b610d6881610d53565b82525050565b600081519050919050565b600082825260208201905092915050565b60005b83811015610da8578082015181840152602081019050610d8d565b83811115610db7576000848401525b50505050565b6000610dc882610d6e565b610dd28185610d79565b9350610de2818560208601610d8a565b610deb81610a72565b840191505092915050565b6000604082019050610e0b6000830185610d5f565b8181036020830152610e1d8184610dbd565b90509392505050565b6000604082019050610e3b6000830185610d29565b610e486020830184610d29565b9392505050565b7f4e487b7100000000000000000000000000000000000000000000000000000000600052602160045260246000fd5b6000606082019050610e936000830186610a03565b610ea06020830185610a03565b610ead6040830184610a03565b949350505050565b6000819050919050565b610ec881610eb5565b82525050565b600067ffffffffffffffff82169050919050565b610eeb81610ece565b82525050565b600061ffff82169050919050565b610f0881610ef1565b82525050565b600063ffffffff82169050919050565b610f2781610f0e565b82525050565b600060a082019050610f426000830188610ebf565b610f4f6020830187610ee2565b610f5c6040830186610eff565b610f696060830185610f1e565b610f766080830184610f1e565b9695505050505050565b600081519050610f8f81610a41565b92915050565b600060208284031215610fab57610faa610a37565b5b6000610fb984828501610f80565b91505092915050565b7f4e487b7100000000000000000000000000000000000000000000000000000000600052603260045260246000fd5b7f4e487b7100000000000000000000000000000000000000000000000000000000600052601160045260246000fd5b600061102b826109f9565b9150611036836109f9565b92508282101561104957611048610ff1565b5b828203905092915050565b7f4e487b7100000000000000000000000000000000000000000000000000000000600052601260045260246000fd5b600061108e826109f9565b9150611099836109f9565b9250826110a9576110a8611054565b5b828206905092915050565b600081905092915050565b50565b60006110cf6000836110b4565b91506110da826110bf565b600082019050919050565b60006110f0826110c2565b915081905091905056fea26469706673582212204e298d4fe23fe847ca07d1b7dc3ad024030fdfb832a6b4e6ec53905e563e1e8d64736f6c63430008090033",
  "devdoc": {
    "kind": "dev",
    "methods": {
      "performUpkeep(bytes)": {
        "details": "The input to this method should not be trusted, and the caller of the method should not even be restricted to any single registry. Anyone should be able call it, and the input should be validated, there is no guarantee that the data passed in is the performData returned from checkUpkeep. This could happen due to malicious keepers, racing keepers, or simply a state change while the performUpkeep transaction is waiting for confirmation. Always validate the data passed in.",
        "params": {
          "performData": "is the data which was passed back from the checkData simulation. If it is encoded, it can easily be decoded into other types by calling `abi.decode`. This data should not be trusted, and should be validated against the contract's current state."
        }
      }
    },
    "version": 1
  },
  "userdoc": {
    "errors": {
      "Lottery__NotEnoughamount()": [
        {
          "notice": "what we wanna do here 1-we want that player can enter lottery by paying lottery price 2-we want our winner to be random(verifiably random) not tempered 3- we want our lottery results every x minutes or months and it should need no maintainance 4- to get randomness and events to trigger we need chainlink oracles and chainlink keepers to execute smart lottery again"
        }
      ]
    },
    "kind": "user",
    "methods": {
      "performUpkeep(bytes)": {
        "notice": "method that is actually executed by the keepers, via the registry. The data returned by the checkUpkeep simulation will be passed into this method to actually be executed."
      }
    },
    "version": 1
  },
  "storageLayout": {
    "storage": [
      {
        "astId": 875,
        "contract": "contracts/lottery.sol:Lottery",
        "label": "players",
        "offset": 0,
        "slot": "0",
        "type": "t_array(t_address_payable)dyn_storage"
      },
      {
        "astId": 880,
        "contract": "contracts/lottery.sol:Lottery",
        "label": "coordinator",
        "offset": 0,
        "slot": "1",
        "type": "t_contract(VRFCoordinatorV2Interface)260"
      },
      {
        "astId": 896,
        "contract": "contracts/lottery.sol:Lottery",
        "label": "s_recentWinner",
        "offset": 0,
        "slot": "2",
        "type": "t_address"
      },
      {
        "astId": 899,
        "contract": "contracts/lottery.sol:Lottery",
        "label": "_lotteryStates",
        "offset": 20,
        "slot": "2",
        "type": "t_enum(lotteryStates)872"
      },
      {
        "astId": 903,
        "contract": "contracts/lottery.sol:Lottery",
        "label": "lastTimeStamp",
        "offset": 0,
        "slot": "3",
        "type": "t_uint256"
      }
    ],
    "types": {
      "t_address": {
        "encoding": "inplace",
        "label": "address",
        "numberOfBytes": "20"
      },
      "t_address_payable": {
        "encoding": "inplace",
        "label": "address payable",
        "numberOfBytes": "20"
      },
      "t_array(t_address_payable)dyn_storage": {
        "base": "t_address_payable",
        "encoding": "dynamic_array",
        "label": "address payable[]",
        "numberOfBytes": "32"
      },
      "t_contract(VRFCoordinatorV2Interface)260": {
        "encoding": "inplace",
        "label": "contract VRFCoordinatorV2Interface",
        "numberOfBytes": "20"
      },
      "t_enum(lotteryStates)872": {
        "encoding": "inplace",
        "label": "enum Lottery.lotteryStates",
        "numberOfBytes": "1"
      },
      "t_uint256": {
        "encoding": "inplace",
        "label": "uint256",
        "numberOfBytes": "32"
      }
    }
  }
}