{
  "_format": "hh-sol-artifact-1",
  "contractName": "Lottery",
  "sourceName": "contracts/lottery.sol",
  "abi": [
    {
      "inputs": [
        {
          "internalType": "address",
          "name": "coordinatorV2",
          "type": "address"
        },
        {
          "internalType": "uint256",
          "name": "entranceFee",
          "type": "uint256"
        },
        {
          "internalType": "bytes32",
          "name": "_gaslane",
          "type": "bytes32"
        },
        {
          "internalType": "uint64",
          "name": "subscriptionId",
          "type": "uint64"
        },
        {
          "internalType": "uint32",
          "name": "callbackGasLimit",
          "type": "uint32"
        },
        {
          "internalType": "uint256",
          "name": "_interval",
          "type": "uint256"
        }
      ],
      "stateMutability": "nonpayable",
      "type": "constructor"
    },
    {
      "inputs": [],
      "name": "Lottery__ExtraAmount",
      "type": "error"
    },
    {
      "inputs": [],
      "name": "Lottery__NotEnoughamount",
      "type": "error"
    },
    {
      "inputs": [
        {
          "internalType": "uint256",
          "name": "",
          "type": "uint256"
        },
        {
          "internalType": "uint256",
          "name": "",
          "type": "uint256"
        },
        {
          "internalType": "uint256",
          "name": "",
          "type": "uint256"
        }
      ],
      "name": "Lottery__UpKeepFailed",
      "type": "error"
    },
    {
      "inputs": [],
      "name": "Lottery__lotteryStateNotOpen",
      "type": "error"
    },
    {
      "inputs": [],
      "name": "Lottery__withdrawlFailure",
      "type": "error"
    },
    {
      "inputs": [
        {
          "internalType": "address",
          "name": "have",
          "type": "address"
        },
        {
          "internalType": "address",
          "name": "want",
          "type": "address"
        }
      ],
      "name": "OnlyCoordinatorCanFulfill",
      "type": "error"
    },
    {
      "anonymous": false,
      "inputs": [
        {
          "indexed": true,
          "internalType": "address",
          "name": "player",
          "type": "address"
        }
      ],
      "name": "raffleEnter",
      "type": "event"
    },
    {
      "anonymous": false,
      "inputs": [
        {
          "indexed": true,
          "internalType": "address",
          "name": "winner",
          "type": "address"
        }
      ],
      "name": "raffleWinner",
      "type": "event"
    },
    {
      "anonymous": false,
      "inputs": [
        {
          "indexed": true,
          "internalType": "uint256",
          "name": "requestId",
          "type": "uint256"
        }
      ],
      "name": "raffleWinnerRequestId",
      "type": "event"
    },
    {
      "inputs": [],
      "name": "changeLotteryState",
      "outputs": [],
      "stateMutability": "nonpayable",
      "type": "function"
    },
    {
      "inputs": [
        {
          "internalType": "bytes",
          "name": "",
          "type": "bytes"
        }
      ],
      "name": "checkUpkeep",
      "outputs": [
        {
          "internalType": "bool",
          "name": "upkeepNeeded",
          "type": "bool"
        },
        {
          "internalType": "bytes",
          "name": "",
          "type": "bytes"
        }
      ],
      "stateMutability": "view",
      "type": "function"
    },
    {
      "inputs": [],
      "name": "enterRaffle",
      "outputs": [],
      "stateMutability": "payable",
      "type": "function"
    },
    {
      "inputs": [],
      "name": "getEntranceFee",
      "outputs": [
        {
          "internalType": "uint256",
          "name": "",
          "type": "uint256"
        }
      ],
      "stateMutability": "view",
      "type": "function"
    },
    {
      "inputs": [],
      "name": "getInterval",
      "outputs": [
        {
          "internalType": "uint256",
          "name": "",
          "type": "uint256"
        }
      ],
      "stateMutability": "view",
      "type": "function"
    },
    {
      "inputs": [
        {
          "internalType": "uint256",
          "name": "index",
          "type": "uint256"
        }
      ],
      "name": "getPlayers",
      "outputs": [
        {
          "internalType": "address",
          "name": "",
          "type": "address"
        }
      ],
      "stateMutability": "view",
      "type": "function"
    },
    {
      "inputs": [],
      "name": "getRaffleState",
      "outputs": [
        {
          "internalType": "enum Lottery.lotteryStates",
          "name": "",
          "type": "uint8"
        }
      ],
      "stateMutability": "view",
      "type": "function"
    },
    {
      "inputs": [],
      "name": "getRecentWinnerAddress",
      "outputs": [
        {
          "internalType": "address",
          "name": "",
          "type": "address"
        }
      ],
      "stateMutability": "view",
      "type": "function"
    },
    {
      "inputs": [
        {
          "internalType": "bytes",
          "name": "performData",
          "type": "bytes"
        }
      ],
      "name": "performUpkeep",
      "outputs": [],
      "stateMutability": "nonpayable",
      "type": "function"
    },
    {
      "inputs": [
        {
          "internalType": "uint256",
          "name": "requestId",
          "type": "uint256"
        },
        {
          "internalType": "uint256[]",
          "name": "randomWords",
          "type": "uint256[]"
        }
      ],
      "name": "rawFulfillRandomWords",
      "outputs": [],
      "stateMutability": "nonpayable",
      "type": "function"
    }
  ],
  "bytecode": "0x6101406040523480156200001257600080fd5b506040516200172b3803806200172b8339818101604052810190620000389190620002a0565b858073ffffffffffffffffffffffffffffffffffffffff1660808173ffffffffffffffffffffffffffffffffffffffff1681525050508460a0818152505085600160006101000a81548173ffffffffffffffffffffffffffffffffffffffff021916908373ffffffffffffffffffffffffffffffffffffffff1602179055508360c081815250508267ffffffffffffffff1660e08167ffffffffffffffff16815250508163ffffffff166101008163ffffffff16815250506000600260146101000a81548160ff021916908360018111156200011957620001186200033c565b5b0217905550806101208181525050426003819055505050505050506200036b565b600080fd5b600073ffffffffffffffffffffffffffffffffffffffff82169050919050565b60006200016c826200013f565b9050919050565b6200017e816200015f565b81146200018a57600080fd5b50565b6000815190506200019e8162000173565b92915050565b6000819050919050565b620001b981620001a4565b8114620001c557600080fd5b50565b600081519050620001d981620001ae565b92915050565b6000819050919050565b620001f481620001df565b81146200020057600080fd5b50565b6000815190506200021481620001e9565b92915050565b600067ffffffffffffffff82169050919050565b62000239816200021a565b81146200024557600080fd5b50565b60008151905062000259816200022e565b92915050565b600063ffffffff82169050919050565b6200027a816200025f565b81146200028657600080fd5b50565b6000815190506200029a816200026f565b92915050565b60008060008060008060c08789031215620002c057620002bf6200013a565b5b6000620002d089828a016200018d565b9650506020620002e389828a01620001c8565b9550506040620002f689828a0162000203565b94505060606200030989828a0162000248565b93505060806200031c89828a0162000289565b92505060a06200032f89828a01620001c8565b9150509295509295509295565b7f4e487b7100000000000000000000000000000000000000000000000000000000600052602160045260246000fd5b60805160a05160c05160e0516101005161012051611354620003d76000396000818161081b0152610894015260006106be0152600061069b0152600061067a015260008181610234015281816103cb015261042501526000818161030b015261035f01526113546000f3fe6080604052600436106100915760003560e01c80634585e33b116100595780634585e33b14610136578063460e20491461015f5780636e04ff0d1461019c57806391ad27b4146101da578063c8bc9f221461020557610091565b806309bc33a714610096578063115cbaf5146100c1578063199ff015146100ec5780631fe543e3146101035780632cfcc5391461012c575b600080fd5b3480156100a257600080fd5b506100ab610230565b6040516100b89190610bd3565b60405180910390f35b3480156100cd57600080fd5b506100d6610258565b6040516100e39190610c65565b60405180910390f35b3480156100f857600080fd5b5061010161026f565b005b34801561010f57600080fd5b5061012a60048036038101906101259190610e19565b610309565b005b6101346103c9565b005b34801561014257600080fd5b5061015d60048036038101906101589190610ed0565b610592565b005b34801561016b57600080fd5b5061018660048036038101906101819190610f1d565b610786565b6040516101939190610f8b565b60405180910390f35b3480156101a857600080fd5b506101c360048036038101906101be9190610ed0565b6107cd565b6040516101d1929190611049565b60405180910390f35b3480156101e657600080fd5b506101ef610890565b6040516101fc9190610bd3565b60405180910390f35b34801561021157600080fd5b5061021a6108b8565b6040516102279190610f8b565b60405180910390f35b60007f0000000000000000000000000000000000000000000000000000000000000000905090565b6000600260149054906101000a900460ff16905090565b6000600181111561028357610282610bee565b5b600260149054906101000a900460ff1660018111156102a5576102a4610bee565b5b14156102db576001600260146101000a81548160ff021916908360018111156102d1576102d0610bee565b5b0217905550610307565b6000600260146101000a81548160ff0219169083600181111561030157610300610bee565b5b02179055505b565b7f000000000000000000000000000000000000000000000000000000000000000073ffffffffffffffffffffffffffffffffffffffff163373ffffffffffffffffffffffffffffffffffffffff16146103bb57337f00000000000000000000000000000000000000000000000000000000000000006040517f1cf993f40000000000000000000000000000000000000000000000000000000081526004016103b2929190611079565b60405180910390fd5b6103c582826108e2565b5050565b7f0000000000000000000000000000000000000000000000000000000000000000341015610423576040517f5f29900700000000000000000000000000000000000000000000000000000000815260040160405180910390fd5b7f000000000000000000000000000000000000000000000000000000000000000034111561047d576040517fe3b7b8a700000000000000000000000000000000000000000000000000000000815260040160405180910390fd5b6000600181111561049157610490610bee565b5b600260149054906101000a900460ff1660018111156104b3576104b2610bee565b5b146104ea576040517f095f40f200000000000000000000000000000000000000000000000000000000815260040160405180910390fd5b6000339080600181540180825580915050600190039060005260206000200160009091909190916101000a81548173ffffffffffffffffffffffffffffffffffffffff021916908373ffffffffffffffffffffffffffffffffffffffff1602179055503373ffffffffffffffffffffffffffffffffffffffff167f742d070bf0f3edace132a9da8ba725e8cf99c478869cee7f673ed6085e2f8e6460405160405180910390a2565b600061059e83836107cd565b5090508061060d5747600080549050600260149054906101000a900460ff1660018111156105cf576105ce610bee565b5b6040517fba56ba1e000000000000000000000000000000000000000000000000000000008152600401610604939291906110a2565b60405180910390fd5b6001600260146101000a81548160ff0219169083600181111561063357610632610bee565b5b02179055506000600160009054906101000a900473ffffffffffffffffffffffffffffffffffffffff1673ffffffffffffffffffffffffffffffffffffffff16635d3b1d307f00000000000000000000000000000000000000000000000000000000000000007f000000000000000000000000000000000000000000000000000000000000000060037f000000000000000000000000000000000000000000000000000000000000000060016040518663ffffffff1660e01b81526004016106ff959493929190611151565b602060405180830381600087803b15801561071957600080fd5b505af115801561072d573d6000803e3d6000fd5b505050506040513d601f19601f8201168201806040525081019061075191906111b9565b9050807f39d6f6f11cc56344164c6b1819c569a963fdff0b3cf6fc86234f0e9208cb839960405160405180910390a250505050565b600080828154811061079b5761079a6111e6565b5b9060005260206000200160009054906101000a900473ffffffffffffffffffffffffffffffffffffffff169050919050565b6000606060008060018111156107e6576107e5610bee565b5b600260149054906101000a900460ff16600181111561080857610807610bee565b5b14905060008060008054905011905060007f0000000000000000000000000000000000000000000000000000000000000000600354426108489190611244565b1190506000804711905083801561085c5750825b80156108655750815b801561086e5750805b9550856040518060200160405280600081525095509550505050509250929050565b60007f0000000000000000000000000000000000000000000000000000000000000000905090565b6000600260009054906101000a900473ffffffffffffffffffffffffffffffffffffffff16905090565b60008080549050826000815181106108fd576108fc6111e6565b5b602002602001015161090f91906112a7565b90506000808281548110610926576109256111e6565b5b9060005260206000200160009054906101000a900473ffffffffffffffffffffffffffffffffffffffff16905080600260006101000a81548173ffffffffffffffffffffffffffffffffffffffff021916908373ffffffffffffffffffffffffffffffffffffffff1602179055506000600260146101000a81548160ff021916908360018111156109ba576109b9610bee565b5b0217905550600067ffffffffffffffff8111156109da576109d9610cd6565b5b604051908082528060200260200182016040528015610a085781602001602082028036833780820191505090505b5060009080519060200190610a1e929190610b13565b504260038190555060008173ffffffffffffffffffffffffffffffffffffffff1647604051610a4c90611309565b60006040518083038185875af1925050503d8060008114610a89576040519150601f19603f3d011682016040523d82523d6000602084013e610a8e565b606091505b5050905080610ac9576040517fe42b12c400000000000000000000000000000000000000000000000000000000815260040160405180910390fd5b8173ffffffffffffffffffffffffffffffffffffffff167f73596e63671a3c1df50f36a159cec4466d1dadf890cd36df5ec84ebc6467d5a460405160405180910390a25050505050565b828054828255906000526020600020908101928215610b8c579160200282015b82811115610b8b5782518260006101000a81548173ffffffffffffffffffffffffffffffffffffffff021916908373ffffffffffffffffffffffffffffffffffffffff16021790555091602001919060010190610b33565b5b509050610b999190610b9d565b5090565b5b80821115610bb6576000816000905550600101610b9e565b5090565b6000819050919050565b610bcd81610bba565b82525050565b6000602082019050610be86000830184610bc4565b92915050565b7f4e487b7100000000000000000000000000000000000000000000000000000000600052602160045260246000fd5b60028110610c2e57610c2d610bee565b5b50565b6000819050610c3f82610c1d565b919050565b6000610c4f82610c31565b9050919050565b610c5f81610c44565b82525050565b6000602082019050610c7a6000830184610c56565b92915050565b6000604051905090565b600080fd5b600080fd5b610c9d81610bba565b8114610ca857600080fd5b50565b600081359050610cba81610c94565b92915050565b600080fd5b6000601f19601f8301169050919050565b7f4e487b7100000000000000000000000000000000000000000000000000000000600052604160045260246000fd5b610d0e82610cc5565b810181811067ffffffffffffffff82111715610d2d57610d2c610cd6565b5b80604052505050565b6000610d40610c80565b9050610d4c8282610d05565b919050565b600067ffffffffffffffff821115610d6c57610d6b610cd6565b5b602082029050602081019050919050565b600080fd5b6000610d95610d9084610d51565b610d36565b90508083825260208201905060208402830185811115610db857610db7610d7d565b5b835b81811015610de15780610dcd8882610cab565b845260208401935050602081019050610dba565b5050509392505050565b600082601f830112610e0057610dff610cc0565b5b8135610e10848260208601610d82565b91505092915050565b60008060408385031215610e3057610e2f610c8a565b5b6000610e3e85828601610cab565b925050602083013567ffffffffffffffff811115610e5f57610e5e610c8f565b5b610e6b85828601610deb565b9150509250929050565b600080fd5b60008083601f840112610e9057610e8f610cc0565b5b8235905067ffffffffffffffff811115610ead57610eac610e75565b5b602083019150836001820283011115610ec957610ec8610d7d565b5b9250929050565b60008060208385031215610ee757610ee6610c8a565b5b600083013567ffffffffffffffff811115610f0557610f04610c8f565b5b610f1185828601610e7a565b92509250509250929050565b600060208284031215610f3357610f32610c8a565b5b6000610f4184828501610cab565b91505092915050565b600073ffffffffffffffffffffffffffffffffffffffff82169050919050565b6000610f7582610f4a565b9050919050565b610f8581610f6a565b82525050565b6000602082019050610fa06000830184610f7c565b92915050565b60008115159050919050565b610fbb81610fa6565b82525050565b600081519050919050565b600082825260208201905092915050565b60005b83811015610ffb578082015181840152602081019050610fe0565b8381111561100a576000848401525b50505050565b600061101b82610fc1565b6110258185610fcc565b9350611035818560208601610fdd565b61103e81610cc5565b840191505092915050565b600060408201905061105e6000830185610fb2565b81810360208301526110708184611010565b90509392505050565b600060408201905061108e6000830185610f7c565b61109b6020830184610f7c565b9392505050565b60006060820190506110b76000830186610bc4565b6110c46020830185610bc4565b6110d16040830184610bc4565b949350505050565b6000819050919050565b6110ec816110d9565b82525050565b600067ffffffffffffffff82169050919050565b61110f816110f2565b82525050565b600061ffff82169050919050565b61112c81611115565b82525050565b600063ffffffff82169050919050565b61114b81611132565b82525050565b600060a08201905061116660008301886110e3565b6111736020830187611106565b6111806040830186611123565b61118d6060830185611142565b61119a6080830184611142565b9695505050505050565b6000815190506111b381610c94565b92915050565b6000602082840312156111cf576111ce610c8a565b5b60006111dd848285016111a4565b91505092915050565b7f4e487b7100000000000000000000000000000000000000000000000000000000600052603260045260246000fd5b7f4e487b7100000000000000000000000000000000000000000000000000000000600052601160045260246000fd5b600061124f82610bba565b915061125a83610bba565b92508282101561126d5761126c611215565b5b828203905092915050565b7f4e487b7100000000000000000000000000000000000000000000000000000000600052601260045260246000fd5b60006112b282610bba565b91506112bd83610bba565b9250826112cd576112cc611278565b5b828206905092915050565b600081905092915050565b50565b60006112f36000836112d8565b91506112fe826112e3565b600082019050919050565b6000611314826112e6565b915081905091905056fea26469706673582212202778a223a0fe258ce83544dc09715e5dd2a9eb86338258e193a5afbfba30b7d464736f6c63430008090033",
  "linkReferences": {},
  "deployedLinkReferences": {}
}